:020000040800F2
:1000000000500020C1250008352500083F250008C4
:10001000452500084B250008512500080000000078
:1000200000000000000000000000000061BA0008AD
:10003000572500080000000031BC000879BC00080A
:1000400009260008092600080926000809260008D4
:1000500009260008092600080926000809260008C4
:1000600009260008092600080926000809260008B4
:1000700065250008792500080926000809260008DA
:100080000926000809260008092600080926000894
:100090008D25000809260008092600080926000801
:1000A00009260008A12500080926000809260008DD
:1000B0000926000809260008092600080926000864
:1000C0000926000809260008092600080926000854
:1000D0000926000809260008092600080926000844
:1000E000092600080926000809260008000000006B
:1000F0000000000000000000000000000000000000
:0C01000000000000000000005FF808F1A3
:1001100010B5054C237833B9044B13B10448AFF341
:1001200000800123237010BD80010020000000002A
:100130005CC9000808B5034B1BB103490348AFF382
:10014000008008BD00000000840100205CC9000898
:1001500080B500AF00221021024803F078F800BFFC
:1001600080BD00BF0008014080B500AF0122102112
:10017000024803F06CF800BF80BD00BF00080140DA
:1001800080B584B000AF03460A46FB711346BB71CD
:10019000FB793B73BB797B73FFF7DAFF07F10C0147
:1001A00002230222044805F087F9FFF7DDFF00BFB4
:1001B0001037BD4680BD00BF201C002080B58EB02A
:1001C00002AF03463960FB711346BB71FB7963F0E4
:1001D0003F03DBB23B73BB790133242B00D9FEE72D
:1001E000FFF7B6FFBB799BB2013398B207F10C025F
:1001F00007F10C01022300930346084805F098FA22
:10020000FFF7B2FF07F10C030133BA7919463868DA
:100210000CF090FB00BF3037BD4680BD201C002095
:1002200080B58EB002AF0346FB7107F10C032422A8
:10023000002118460CF089FBFB7963F07F03DBB2E9
:100240003B73FFF785FF07F10C0207F10C01022356
:1002500000932423044805F06BFAFFF785FF7B7BAE
:1002600018463037BD4680BD201C002080B582B0C6
:1002700000AF78600B46FB70FB781A4679683F2028
:10028000FFF79CFF00BF0837BD4680BD80B582B038
:1002900000AF0346FB71FFF75BFFF91D022301224C
:1002A000044805F009F9FFF75FFF00BF0837BD46B6
:1002B00080BD00BF201C002080B582B000AF034687
:1002C000FB71FB79012B08D12F210020FFF758FF8C
:1002D0006F210220FFF754FF13E0FB79022B08D1B6
:1002E0002F210220FFF74CFF6F210020FFF748FF6E
:1002F00007E02F210220FFF743FF2F210020FFF707
:100300003FFF00BF0837BD4680BD80B500AF30203D
:10031000FFF7BCFF012002F0ABF90020FFF7CCFF94
:100320000E20FFF77DFF0346C42B0CBF01230023E3
:10033000DBB2184680BD90B583B000AF78600B4645
:100340007B807B884FF000041A46234679680120A1
:1003500002F00CFC034618460C37BD4690BD80B534
:1003600088B000AF786007F10C0300221A605A6071
:100370009A60DA607B687B610123BB6107F11C0234
:1003800007F10C031146184602F048FD03461846D3
:100390002037BD4680BD000080B584B000AF062385
:1003A0003B810623FB800023FB810023BB800023CD
:1003B0007B804FF6FF73BB810023FB7200F058FB7C
:1003C000B44B1B883B81B44B1B88FB800123BB7261
:1003D0003B894EF6EE62934245D04FF6FF72934250
:1003E00003D0002B00F0C4803EE1FB88002B0ED12F
:1003F000BB7A002B03D002F029FC0023BB72A54876
:10040000FFF7ADFF0346FB72FB7A002B4FE1FB8841
:100410004EF6EE62934218D1BB7A002B03D002F065
:1004200015FC0023BB729B48FFF799FF0346FB7244
:10043000FB7A002B40F0268100219748FFF77BFFD5
:100440000346FB72FB7A002B31E1BB7A002B03D011
:1004500002F0FCFB0023BB7200F0A8F90346FB721C
:10046000FB7A002B23E1FB88002B55D10023FB8175
:1004700036E08A4B1B889AB2FB89894931F81330E0
:100480009A4201D1FB89BB81FA89B7F90C309A42B3
:1004900023D0FB89824A32F813308249184600F093
:1004A00015F903467B807B88012B16D0BB7A002B85
:1004B00003D002F0CBFB0023BB72FB89784A32F8F1
:1004C0001320784B1B881946104600F0DBF90346D1
:1004D000BB80BB88002B40F0D780FB890133FB81B8
:1004E000FB891D2BC5D9BB7A002B03D002F0AEFBD4
:1004F0000023BB7200216748FFF71DFF0346FB7214
:10050000FB7A002B40F0C2806348FFF728FF0346C8
:10051000FB72FB7A002BCAE0FB884FF6FF72934216
:1005200018D1BB7A002B03D002F090FB0023BB72E2
:100530005948FFF714FF0346FB72FB7A002B40F08B
:10054000A78000215348FFF7F6FE0346FB72FB7AB3
:10055000002BACE0BB7A002B03D002F077FB00232A
:10056000BB7200F023F90346FB72FB7A002B9EE07E
:10057000FB88002B0DD1BB7A002B03D002F066FB69
:100580000023BB7200F012F90346FB72FB7A002BCA
:100590008DE0FB884FF6FF7293420ED1BB7A002BA1
:1005A00003D002F053FB0023BB723B48FFF7D7FE9A
:1005B0000346FB72FB7A002B79E00023FB8138E0D5
:1005C000394B1B889AB2FB89354931F813309A426E
:1005D00001D1FB89BB81FA89B7F90C309A4225D049
:1005E000FB892F4A32F813302E49184600F06EF876
:1005F00003467B807B88012B18D0BB7A002B03D06D
:1006000002F024FB0023BB72FB89254A32F8132039
:10061000244B1B881946104600F034F90346BB8072
:10062000BB88002B02D0BB88FB7240E0FB89013302
:10063000FB81FB891D2BC3D9BB7A002B03D002F0B1
:1006400005FB0023BB7200211348FFF774FE03462D
:10065000FB72FB7A002B29D10E48FFF780FE034680
:10066000FB72FB7A002B22E0BB7A002B03D002F056
:10067000EDFA0023BB7200F099F80346FB72FB7A97
:10068000002B14E000BF12E000BF10E000BF0EE03E
:1006900000BF0CE000F8000800FC000806F80008A5
:1006A000D81B00209C01002006FC000800BFBB7A7C
:1006B00083F00103DBB2002B01D002F0EDFAFB7AEC
:1006C0009BB218461037BD4680BD00BF80B586B0CE
:1006D00000AF03463960FB800023FB8145F2555390
:1006E000BB810123FB821C4B3B611B4BBB60002089
:1006F00000F084F80346FB81FB89AB2B01D1AB23CF
:1007000025E0FB8903F500333E339B02BB60FB8988
:1007100001339A02114B13443B6112E03B691B8881
:10072000BB81BA89FB889A4208D13B69023B1B888E
:100730009AB23B681A800023FB8207E03B69043BC6
:100740003B61BB6802333A699A42E7D8FB8A184694
:100750001837BD4680BD00BF00000108FEF7000845
:1007600080B584B000AF03460A46FB801346BB80C9
:100770000023FB8102F06AFABA88FB88114618460A
:1007800000F080F80346FB81FB89802B07D1BA88F3
:10079000FB881146184600F0CDF80346FB8102F0B5
:1007A0007BFAFB8918461037BD4680BD80B582B004
:1007B00000AF0023FB710F48FFF7D1FD0346FB712B
:1007C000FB79002B01D0FB7910E000210948FFF7ED
:1007D000B2FD0346FB71FB79002B01D0FB7905E0EC
:1007E0000548FFF7BCFD0346FB71FB791846083747
:1007F000BD4680BD00F8000800FC000880B485B04C
:1008000000AF0346FB710623FB810623BB811B4B14
:100810001B88FB811A4B1B88BB81FB79002B1BD0EB
:10082000012B25D1BB89002B08D1FB894EF6EE6246
:10083000934201D100231CE001231AE0FB89002B25
:1008400008D1BB894EF6EE62934201D1012310E03C
:1008500000230EE0AB230CE0FB89002B01D1002329
:1008600007E0BB89002B01D1012302E0AB2300E0AC
:10087000002318461437BD4680BC704700F80008B6
:1008800000FC000880B586B000AF03460A46FB8036
:100890001346BB800023FB7400233B82224B7B6109
:1008A000224BFB600120FFF7A9FF03463B823B8AF6
:1008B000AB2B01D1AB2332E03B8A03F500333E334F
:1008C0009B027B613B8A01339A02194B1344FB6004
:1008D00020E07B691B68B3F1FF3F18D1BB88194644
:1008E0007869FFF728FD0346FB74FB7C002B02D0E0
:1008F000FB7C9BB213E07B690233FA8811461846F1
:10090000FFF719FD0346FB74FB7C9BB207E07B6994
:1009100004337B617A69FB689A42DAD380231846F4
:100920001837BD4680BD00BF00000108FF07010861
:10093000FEF7000880B588B000AF03460A46FB808A
:100940001346BB8000237B75434BFB61434BBB616C
:1009500000237B820023FB8200233B820023FB8158
:100960000020FFF74BFF03467B827B8A012B04D1DB
:100970003B4BFB613B4BBB6109E07B8A002B04D105
:10098000384BFB61364BBB6101E0AB2360E04EF6B8
:10099000EE61F869FFF7CFFC03467B757B7D002B8A
:1009A00002D07B7D9BB253E0BA88FB881146184683
:1009B000FFF768FF03463B823B8A002B01D03B8A4E
:1009C00046E00023FB8227E0FB8A274A32F81330F7
:1009D000FA889A421DD0FB8A234A32F81330234901
:1009E0001846FFF773FE0346FB81FB89012B10D0ED
:1009F000FB8A1D4A32F813201C4B1B8819461046EF
:100A0000FFF740FF03463B823B8A002B01D03B8A25
:100A10001EE0FB8A0133FB82FB8A1D2BD4D9B86907
:100A2000FFF79DFC03467B757B7D002B02D07B7D11
:100A30009BB20DE00021F869FFF77DFC03467B7552
:100A40007B7D002B02D07B7D9BB201E07B7D9BB246
:100A500018462037BD4680BDFF030108000001088D
:100A600000F8000800FC0008D81B00209C010020B2
:100A700080B483B000AF0023FB7108E0FB79FA7902
:100A800091B2074A22F81310FB790133FB71FB790D
:100A90001D2BF3D900BF0C37BD4680BC704700BF8B
:100AA000D81B002080B584B000AF0346FB80002334
:100AB000FB8107F10E02FB8811461846FFF706FE80
:100AC000FB8918461037BD4680BD80B582B000AFA7
:100AD00003460A46FB801346BB80BA88FB88114652
:100AE0001846FFF73DFE00BF0837BD4680BD000039
:100AF00080B400AF034B01221A7000BFBD4680BC1A
:100B0000704700BF9A02002080B400AF024B1B78F0
:100B10001846BD4680BC70478802002080B400AFF4
:100B2000024B1B781846BD4680BC70478F020020E0
:100B300080B485B000AF7860094B1B78FB73084B1D
:100B400000221A707B68074A1A60FB7B002B14BFD7
:100B500001230023DBB218461437BD4680BC704722
:100B6000870200206402002080B500AF3620FFF726
:100B70008DFB3A20FFF78AFB3420FFF787FB00BF8D
:100B800080BD000080B584B000AF5A4A3B1D92E89A
:100B90000300186004331970574B1B7807F11002DB
:100BA000134413F80C2C554B1A70FFF7AEFB36208C
:100BB000FFF76CFB0023FB730EE0FB7B504A12F83F
:100BC0001300FB7B4E4A5B0013445B781946FFF72A
:100BD000D7FAFB7B0133FB73FB7B182BEDD9092084
:100BE000FFF71EFB0346032B00D0FEE7424B1B78AA
:100BF000042B6ED801A252F823F000BF990C000814
:100C0000110C00085D0C0008110C00085D0C0008B8
:100C10000023BB730EE0BB7B3A4A12F81300BB7B88
:100C2000384A5B0013445B781946FFF7A9FABB7B8F
:100C30000133BB73BB7B092BEDD92F4B1B78032BE7
:100C400044D105210820FFF79BFA0E211720FFF75A
:100C500097FA84211120FFF793FA37E000237B7382
:100C60000EE07B7B284A12F813007B7B264A5B0050
:100C700013445B781946FFF783FA7B7B01337B7360
:100C80007B7B092BEDD91C4B1B78042B20D1052134
:100C90000820FFF775FA1BE000233B730EE03B7B57
:100CA0001A4A12F813003B7B184A5B0013445B7826
:100CB0001946FFF765FA3B7B01333B733B7B092BFE
:100CC000EDD989212320FFF75BFA02E000BF00E0A5
:100CD00000BF00210A20FFF753FA0220FFF7ECFAC9
:100CE000FFF742FF012001F0C3FC00BF1037BD46F3
:100CF00080BD00BF74C900080000002084020020ED
:100D000008CA00083CCA000850CA000864CA0008A3
:100D100080B582B000AF0346FB71FB790D4AD35C0E
:100D200019460A20FFF72CFA0B4B1B78002B03D136
:100D300089212320FFF724FAFB79084AD35C19465E
:100D40002520FFF71DFAFFF70FFF00BF0837BD464C
:100D500080BD00BFF4010020000000202802002018
:100D600080B582B000AFFFF7FFFE00237B601DE07F
:100D70003620FFF78BFA114A7B6813441B7819461B
:100D80000A20FFF7FDF93320FFF780FA012001F078
:100D90006FFC2520FFF744FA03461946084A7B6892
:100DA00013440A461A707B6801337B607B682E2BE4
:100DB000DED900BF0837BD4680BD00BFF40100206A
:100DC0002802002080B584B000AF03460A46FB71BC
:100DD0001346BB71FB79002B11D07F4B1B781A4651
:100DE0007E4B1B78013B9A4209D07B4B5B78032BEF
:100DF00005D0794B9B78012B01D00023E8E0FB79EB
:100E0000002B01D0032300E001237B73744B1B787C
:100E1000002B38D1714B1B7801336F4AD35C5BB226
:100E2000002B01DB0023D3E0BB79002B0CD06A4BF5
:100E3000DA786C4BDA70684B1A796A4B9A70664BA9
:100E40005A7C684B5A701CE0664BDA787B7B6249AF
:100E5000CB5C9A4213D1634B9A787B7B01335E491A
:100E6000CB5C9A420BD15F4B5A78FB79002B01D0B7
:100E7000112300E005235849CB5C9A4201D000239E
:100E8000A6E00123A4E0564B1B78042B03D0544B5F
:100E90001B78032B09D1514B1B7801334E4AD35C8D
:100EA0005BB2002B01DB002392E04C4B1B78053B2F
:100EB000DBB2002219464C4800F0A6FE03467B81B7
:100EC000464B1B78023B444AD35C1B021AB2434B8D
:100ED0001B78013B4049CB5C1BB213431BB23B81E7
:100EE0007A893B899A4201D0002371E0FB79002B7B
:100EF0001DD03B4B1B78042B03D0394B1B78032BA5
:100F000015D10323FB730CE0FB7B334AD35CFA7BE4
:100F100083F05803DB43D9B22F4B9954FB7B013349
:100F2000FB73FA7B2D4B1B78023B9A42ECDB0023D0
:100F3000BB73FB79002B09D0294B1B78022B03D004
:100F4000274B1B78012B01D10623BB73BB79002BE8
:100F500014D0214BDA78234BDA701F4B1A79214BCE
:100F60009A70BB7B05331C4AD25C1E4B5A70BB7B0C
:100F70000633194AD25C1B4B1A701AE0194BDA7807
:100F80007B7B1549CB5C9A4211D1164B9A787B7BBF
:100F900001331149CB5C9A4209D1124B5A787B7BC1
:100FA000991CBB7B0B440C49CB5C9A4201D00023BB
:100FB0000EE0FB7983F00103DBB2002B07D0094B75
:100FC0001A78054B9B799A4201D0002300E0012357
:100FD00018461037BD4680BDC001002084020020A5
:100FE000000000205C020020C301002080B489B012
:100FF00000AF0023FB610023FB760023BB76964BFA
:101000001B78002B40F0AC80944B9B7A1B021BB2E8
:1010100003F470631AB2914B9B791BB213431BB25A
:101020009BB23B808D4B9B7A1B011BB203F4706318
:101030001AB28A4BDB791BB213431BB29BB27B8083
:10104000864BDB7A1B021BB203F470631AB2834B2C
:101050001B7A1BB213431BB29BB2BB807F4BDB7A64
:101060001B011BB203F470631AB27C4B5B7A1BB298
:1010700013431BB29BB2FB80784B1B7C1B021BB241
:1010800003F470631AB2754B1B7B1BB213431BB284
:101090009BB23B81714B1B7C1B011BB203F4706341
:1010A0001AB26E4B5B7B1BB213431BB29BB27B81AC
:1010B0006A4B5B7C1B021BB203F470631AB2674B72
:1010C0009B7B1BB213431BB29BB2BB81634B5B7C0C
:1010D0001B011BB203F470631AB2604BDB7B1BB2C3
:1010E00013431BB29BB2FB8100237B7634E07B7EF3
:1010F0005B0007F12002134433F8203C40F2095210
:10110000934208D87B7E5B0007F12002134440F233
:101110000A5223F8202C7B7E5B0007F12002134447
:1011200033F8203CA3F20A531B014D4A82FB031201
:101130001A44D210DB17D31AFB82FB8AB3F5006F77
:1011400002D340F2FF73FB827B7E4649FA8A21F884
:1011500013207B7E01337B767B7E072BC7D9D6E0BD
:101160003E4B9B7A1B021BB203F470631AB23B4BDB
:101170005B7A1BB213431BB29BB23B80374BDB7ACB
:101180001B011BB203F47F631AB2344B9B7A1B0919
:10119000DBB21BB213431BB29BB27B802F4B5B7B3A
:1011A0001B021BB203F470631AB22C4B1B7B1BB2E5
:1011B00013431BB29BB2BB80284B9B7B1B011BB212
:1011C00003F47F631AB2254B5B7B1B09DBB21BB2B6
:1011D00013431BB29BB2FB80204B1B7C1B021BB238
:1011E00003F470631AB21D4BDB7B1BB213431BB2BB
:1011F0009BB23B81194B5B7C1B011BB203F47F63E9
:101200001AB2164B1B7C1B09DBB21BB213431BB279
:101210009BB27B81114BDB7C1B021BB203F470631E
:101220001AB20E4B9B7C1BB213431BB29BB2BB8109
:101230000A4B1B7D1B011BB203F47F631AB2074BE1
:10124000DB7C1B09DBB21BB213431BB29BB2FB81DD
:1012500000237B7658E000BF00000020C001002082
:101260008988888864020020534BDB791A467B7E8C
:101270005B0010339A4244D07B7E5B0007F1200272
:10128000134433F8203C03F40063002BCCBF01234C
:101290000023DBB2FB747B7E5B0007F1200213446A
:1012A00033F8203CC3F30A033B823B8A3F2B0BD825
:1012B000FB7C002B02D07B7E083300E07B7E3F4A24
:1012C000002122F813101CE03B8A403B1B013C4AE2
:1012D00082FB03121A44D210DB17D31ABB82BB8ADB
:1012E000B3F5006F02D340F2FF73BB82FB7C002B8F
:1012F00002D07B7E083300E07B7E3049BA8A21F839
:1013000013207B7E01337B767B7E072BACD9BB7EA3
:101310005A1CBA761A462B4B19782B4B9954BB7E24
:101320005A1CBA761A46294B1978274B9954BB7E1A
:101330005A1CBA761A46244B00219954244B1B7828
:10134000002B01D1082100E01021BB7E5A1CBA7687
:101350001A461D4B995400237B7622E07B7E174A68
:1013600032F813301A46FB7E02FA03F3FA6913438C
:10137000FB61FB7E0B33FB760DE0BB7E5A1CBA761D
:101380001A46FB69D9B2104B9954FB691B0AFB61E1
:10139000FB7E083BFB76FB7E072BEED87B7E013382
:1013A0007B76094BDB787A7E9A42D7D300BF24370D
:1013B000BD4680BC704700BFC00100206402002011
:1013C000898888888F020020A00100208E020020DA
:1013D0000000002090B583B000AF0020FFF762FB53
:1013E00003461A46434BA3FB021399080B469B0086
:1013F0000B44D31A9BB2DAB23F4B1A703F4C012018
:10140000FFF750FB034623803D4C0220FFF74AFBC9
:10141000034623800320FFF745FB03465AB2394BAE
:101420001A70354B1B78042B1ED0334B1B78032BC3
:101430001AD00023FB7113E0FB795B08DBB29BB28F
:10144000043399B2FB795B08DBB25B002E4A9C182F
:101450000846FFF727FB03462380FB790233FB7125
:10146000FB792E2BE8D90AE0234B1B78032B01D103
:10147000002200E00222254B1A7000F0F3FB00234B
:10148000BB7102E0BB790133BB71BB792E2BF9D95B
:10149000FFF778FBFFF764FC08211820FEF770FEC9
:1014A000164BDB7819460920FEF76AFE0521072056
:1014B000FEF766FE164B1B78002B08D1114B93F9F3
:1014C0000030DBB219460C20FEF75AFE05E0104B47
:1014D0001B7819460C20FEF753FE0E4B1B7818465E
:1014E000FFF716FC0C4B04221A7000BF0C37BD46E8
:1014F00090BD00BFCDCCCCCC000000205C02002011
:101500005E0200209C020020F401002090020020D6
:101510008A020020860200208802002080B500AFE9
:10152000124B01221A70124B00221A70114B00222A
:101530001A70114B00221A70104B00221A70104BB7
:1015400000221A700F4B1B78002B08D00E4B002284
:101550001A70FFF717FB0D4B00221A7001E0FFF71E
:1015600039FF4FF47A73184680BD00BF9B020020FC
:1015700086020020890200209C02002087020020B1
:10158000850200209A02002000000020880200202E
:1015900080B582B000AFA94B1B7883F00103DBB2AA
:1015A000002B07D0A64B1B78042B03D0FFF7B6FF08
:1015B0000346E6E2A34B1A78A34B1B789A421AD053
:1015C0009F4B1B78032B16D99F4B1B78002B08D100
:1015D0009E4B93F90030DBB219460C20FEF7D0FD8C
:1015E00005E0994B1B7819460C20FEF7C9FD964B78
:1015F0001A78944B1A70FB20FEF712FE034603F094
:101600007F037B718E4B1B78042B00F2B88201A202
:1016100052F823F029160008C916000849170008D7
:10162000F7170008571900087A79894B1B7802339D
:101630009A4221D17B7919468648FEF717FE01218F
:101640000120FFF7BFFB0346002B15D07F4B812203
:101650001A707E4B93F90030DBB219460C20FEF76E
:101660008FFD774B01221A70FFF77EFA7A4B00222A
:101670001A804FF47A7384E2784B1B785A1C784BAB
:1016800083FB02135910D317C91A0B469B000B4456
:10169000D11ACAB2714B1A70FFF774FA6B4B93F9F7
:1016A0000030DBB20A33DBB25AB2684B1A70674BB8
:1016B00093F90030DBB219460C20FEF761FDFFF70D
:1016C00053FA44F250635CE27A79614B1B7802333F
:1016D0009A4223D17B7919465E48FEF7C7FD002167
:1016E0000120FFF76FFB0346002B17D0574B93F9F0
:1016F00000205C4B1A70554B7F221A70534B93F9A4
:101700000030DBB219460C20FEF73AFD4C4B0222AA
:101710001A70FFF729FA4FF47A7332E24B4B93F9C0
:101720000030DBB20133DBB25AB2484B1A70474B80
:1017300093F90030DBB219460C20FEF721FDFFF7CC
:1017400013FA44F250631CE27A79414B1B7802335E
:101750009A423AD17B7919463E48FEF787FD00212F
:101760000120FFF72FFB0346002B2ED0374B93F9B8
:1017700000203D4B1A703B4B93F900301A463A4B10
:1017800093F900301344DA0F13445B105AB22F4B15
:101790001A702E4B93F90030DBB219460C20FEF77D
:1017A000EFFC304B93F900202F4B93F900309A4215
:1017B00003DA234B03221A7002E0214B00221A7035
:1017C000FFF7D2F94FF47A73DBE1204B93F9003045
:1017D000DBB2013BDBB25AB21C4B1A701B4B93F9C4
:1017E0000030DBB219460C20FEF7CAFCFFF7BCF94B
:1017F00044F25063C5E17A79154B1B7802339A4263
:1018000040F0A6807B7919461248FEF72FFD002193
:101810000120FFF7D7FA0346002B00F097800F4B0B
:101820001B78042B47D00D4B1B78032B43D0094B5F
:101830005B792D2B43D80023FB7125E09A02002011
:10184000880200208B0200208A0200209C020020D7
:1018500084020020C00100208C0200200000002033
:10186000676666669D0200209E020020FB799A1D35
:101870006B4B5B791946FB790B446949895C694A72
:10188000D154FB790133FB71FB79042BEED9644B06
:101890005B79654AA2FB03239B08DBB21A4601234E
:1018A00093401AB2614B1B881BB213431BB29AB20E
:1018B0005E4B1A8003E05D4B40F2FF321A805B4BB7
:1018C0001B8840F2FF32934240D1594B00221A70DC
:1018D000584B1B789BB219460020FFF7F6F8564B81
:1018E0001B8819460120FFF7F0F8544B1B88194656
:1018F0000220FFF7EAF8524B93F900309BB21946E9
:101900000320FFF7E2F84B4B1B78032B1CD0494B0D
:101910001B78042B18D00023FB7112E0FB795B08C5
:10192000DBB29BB2043398B2FB795B08DBB25B009D
:101930003C4A13441B881946FFF7C7F8FB7902336A
:10194000FB71FB792E2BE9D9FFF744FDFFF70CF96A
:101950004FF47A7315E17A793A4B1B7802339A4245
:1019600040F0BB807B7919462D48FEF77FFC0021B3
:101970000020FFF727FA0346002B00F0AE807B79AA
:10198000023B274AD25C304B1A702F4B1B785BB25C
:10199000002B06DA2C4B1B78803BDAB22A4B1A70EC
:1019A00005E0294B1B78803BDAB2274B1A700123E4
:1019B000BB71204B1B78002B5CD0244B1B78002B79
:1019C0004AD0234B1B781A46154B1B799B09DBB277
:1019D0001946134B5B799B00DBB20B439A421AD03A
:1019E0000023BB711B4B1B780133DAB2194B1A7001
:1019F000184B1B78052B3DD9094B1B799B09DBB292
:101A00005AB2074B5B799B005BB213435BB2DAB20D
:101A10000F4B1A702EE00F4B00221A702AE000BF05
:101A2000C0010020F4010020CDCCCCCC8C020020E1
:101A30009A020020000000205C0200205E020020CC
:101A40009C020020840200208E02002089020020D7
:101A50009B020020850200204C4B1B799B09DBB2C6
:101A60005AB24A4B5B799B005BB213435BB2DAB26A
:101A7000474B1A70474B1B781A46454B1B781A4444
:101A8000454B83FB021313445911D317C91A0B4654
:101A90005B000B441B015B1AD11ACAB23D4B1A7092
:101AA0003C4B1B781846FFF733F9BB79002B0ED05F
:101AB0003A4B1B78002B04D1FFF798FA374B0122E1
:101AC0001A70374B1B8801339AB2354B1A80354B4D
:101AD00001221A70344B00221A7000F0BFFD02463A
:101AE000324B1B68D31AB3F57A7F16D300F0B6FDDC
:101AF00002462E4B1A602A4B1B88DAB22C4B1A7006
:101B0000274B1B88002B05D1264B00221A70294B2E
:101B100000221A70224B00221A80234B93F90030C6
:101B2000DAB20132D2B251B21F4A1170082B25DD50
:101B3000184B1B781A46164B1B781A44164B83FB1E
:101B4000021313445911D317C91A0B465B000B44F7
:101B50001B015B1AD11ACAB20E4B1A700D4B1B78BF
:101B60001846FFF7D5F80F4B1B78002B03D00E4B10
:101B700000221A7002E00C4BCE221A7000BF4FF404
:101B80007A7318460837BD4680BD00BFC0010020EB
:101B90009B020020860200205D414CAE870200209F
:101BA00098020020890200209F0200209402002059
:101BB0008F0200208502002080B485B000AF03466C
:101BC000FB71FB7903F00F030E4A32F81330FB81EF
:101BD000FB791B09FB71FB799BB21A4692011344F6
:101BE0001A4691011A460B4613449BB21AB2B7F932
:101BF0000E3053401BB29BB218461437BD4680BC12
:101C0000704700BF78CA000890B585B000AF786013
:101C10000B46FB7013463B803B88FB8100237B73A4
:101C200017E0FB891B021CB2FB891B0A9BB2DAB2CC
:101C30007B68591C79601B785340DBB21846FFF76C
:101C4000BBFF03461BB263401BB2FB817B7B0133AE
:101C50007B737A7BFB789A42E3D3FB89184614376F
:101C6000BD4690BD80B483B000AF5A4B9B789BB209
:101C70001B029AB2574BDB789BB213447B807B8864
:101C8000554AA2FB031252092E2101FB02F29B1AB4
:101C90009BB2DBB20133FB71FB790C2B02D0FB79D9
:101CA000232B02D1FB790133FB717A884B4BA3FBC9
:101CB000021399080B469B000B44D31A9BB27B700E
:101CC00000237B7179E0FB799BB27A7992B202FBB7
:101CD00003F399B2424BA3FB01235A0913465B005D
:101CE00013441B019B1ACB1A9BB2DBB21A4692001B
:101CF0001344DAB27B781344BB713A4B1B7803F080
:101D00000203002B2BD0BB79012B17D9BB792B2BCE
:101D100014D0BB792C2B11D0BB79572B0ED0BB79AB
:101D2000582B0BD0BB79812B08D0BB79822B05D0E7
:101D3000BB79AD2B02D0BB79AE2B03D1BB7902337B
:101D4000BB7133E0BB79D82B05D0BB79D92B02D03E
:101D5000BB79DA2B2AD1BB790333BB7126E0BB797F
:101D6000032B20D0BB79042B1DD0BB792E2B1AD08E
:101D7000BB792F2B17D0BB795A2B14D0BB795B2B97
:101D800011D0BB79852B0ED0BB79862B0BD0BB79BC
:101D9000B02B08D0BB79B12B05D0BB79DC2B02D09E
:101DA000BB79DD2B02D1BB790233BB717B790E4944
:101DB000BA79CA547B7901337B717B792E2B82D916
:101DC000094B002283F82F2000BF0C37BD4680BC92
:101DD000704700BF5C020020C94216B2CDCCCCCC0B
:101DE0005D414CAE90020020F401002080B500AFB0
:101DF00000F00CFC00F01EF800F0E8F800F0C0F86D
:101E000000F088F800F072F8FEF7C6FA07F0A0FCC0
:101E1000054A0021054807F001FD0246044B1A60FF
:101E200007F0C8FCFEE700BF98CA0008C5200008FC
:101E3000141C002080B594B000AF07F128032822BD
:101E4000002118460AF081FD07F1140300221A60F0
:101E50005A609A60DA601A613B1D00221A605A606B
:101E60009A60DA600123BB624FF48033FB62002387
:101E70003B630123BB6302237B644FF48033BB6469
:101E80004FF4E013FB6407F12803184602F07CFDD1
:101E90000346002B01D000F0FFF90F237B610223E2
:101EA000BB610023FB614FF480633B6200237B62D4
:101EB00007F114030221184602F0E6FF0346002B47
:101EC00001D000F0E9F910237B6000233B613B1D4A
:101ED000184603F0B7F90346002B01D000F0DCF9F7
:101EE00003F0BCF800BF5037BD4680BD80B500AFE1
:101EF000064B074A1A60054800F0BBFC0346002B5E
:101F000001D000F0C9F900BF80BD00BF181C00203F
:101F10000030024080B500AF174B184A1A60164BCC
:101F20004FF482725A60144B00229A60124B0022C6
:101F3000DA60114B00221A610F4B00225A610E4BDE
:101F40004FF400729A610C4B1822DA610A4B00229E
:101F50001A62094B00225A62074B00229A62064B12
:101F60000A22DA62044803F023FA0346002B01D068
:101F700000F092F900BF80BD201C0020003001401D
:101F800080B582B000AF104B5B690F4A43F001038C
:101F900053610D4B5B6903F001037B607B6800229A
:101FA00005210C2000F03BFC0C2000F054FC00222A
:101FB00005210D2000F033FC0D2000F04CFC00BF8B
:101FC0000837BD4680BD00BF0010024080B588B014
:101FD00000AF07F1100300221A605A609A60DA60BD
:101FE000344B9B69334A43F010039361314B9B6937
:101FF00003F01003FB60FB682E4B9B692D4A43F0F6
:10200000200393612B4B9B6903F02003BB60BB68EB
:10201000284B9B69274A43F004039361254B9B6936
:1020200003F004037B607B68224B9B69214A43F0E9
:10203000080393611F4B9B6903F008033B603B68F7
:1020400001224FF400511C4801F001F90022102137
:102050001A4801F0FCF84FF400533B6101237B6107
:102060000023BB610223FB6107F1100319461248EC
:1020700000F07CFF10233B6101237B610023BB61E7
:102080000223FB6107F1100319460C4800F06EFFB4
:102090004FF480533B6100237B610123BB6107F157
:1020A00010031946064800F061FF00BF2037BD4607
:1020B00080BD00BF00100240001001400008014038
:1020C000000C014080B58EB000AF78600AF026F8B1
:1020D00007F1100300221A605A609A60DA60C3F8B0
:1020E0000F204FF480515F4801F09AF8034687F8BB
:1020F000313097F83130002B07D1FEF7F9FC002280
:102100004FF40051584801F0A2F8FFF707FA00F029
:10211000A5FA7863002387F83330786B07F028FC42
:10212000FFF736FA0346FB62FEF7EEFC034687F83C
:102130002B3007F10C031846FEF7FAFC034687F82C
:102140002A3097F82A30002B45D000233B82002309
:10215000BB74002387F8323032E0FA6897F83230E7
:102160005B001A4497F8323012885B0007F138019F
:102170000B4423F8252CFA6897F8323008335B00BB
:1021800013441B8840F2DC52934214D93B69C3F3D9
:102190001703194697F83230012202FA03F30B4372
:1021A00023F07F439AB200210A433A821B0CDBB230
:1021B00000221343BB7497F83230013387F8323072
:1021C00097F83230072BC8D907F1100313221946AC
:1021D000264806F063F9FB6A254AA2FB03239B0904
:1021E0007B627A6B7B6A13447B6397F82B30042BFA
:1021F00032D1FEF793FC034687F8233097F823305B
:10220000002B06D101224FF40051174801F01FF8AE
:1022100022E097F8333003F01F03002B1CD197F80E
:1022200023305A2B13D897F82330462B05D997F82B
:10223000333003F03F03002B09D097F82330322BC3
:102240000AD997F8333003F07F03002B04D14FF401
:102250000051054801F013F897F83330013387F83F
:1022600033305AE7000C014000100140B01D00203F
:10227000D34D621080B582B000AF78607B681B6878
:10228000044A934201D100F0D7F900BF0837BD4698
:1022900080BD00BF002C014080B400AF72B6FEE7E5
:1022A00080B584B000AF184B9B69174A43F0010317
:1022B0009361154B9B6903F00103BB60BB68124B34
:1022C000DB69114A43F08053D3610F4BDB6903F0A4
:1022D00080537B607B6800220F216FF0010000F0CB
:1022E0009EFA0A4B5B68FB60FB6823F0E063FB60CF
:1022F000FB6843F00073FB60044AFB68536000BF57
:102300001037BD4680BD00BF0010024000000140F4
:1023100080B485B000AF78607B681B68094A93423F
:102320000BD1094B5B69084A43F040035361064BEC
:102330005B6903F04003FB60FB6800BF1437BD46D8
:1023400080BC7047003002400010024080B588B069
:1023500000AF786007F1100300221A605A609A609B
:10236000DA607B681B68414A93427BD1404B9B6992
:102370003F4A43F4805393613D4B9B6903F4805380
:10238000FB60FB683A4B9B69394A43F00403936155
:10239000374B9B6903F00403BB60BB68A0233B6120
:1023A00002237B610323FB6107F1100319463148C7
:1023B00000F0DCFD40233B6100237B610023BB6117
:1023C00007F1100319462B4800F0D0FD2A4B2B4A89
:1023D0001A60294B00225A60274B00229A60264B34
:1023E0008022DA60244B00221A61234B00225A61BA
:1023F000214B00229A61204B0022DA611E4800F036
:1024000055FA0346002B01D0FFF746FF7B681A4AB6
:10241000DA64194A7B685362194B1A4A1A60184BDE
:1024200010225A60164B00229A60154B8022DA6007
:10243000134B00221A61124B00225A61104B0022EA
:102440009A610F4B0022DA610D4800F02FFA034623
:10245000002B01D0FFF720FF7B68094A9A64084AE5
:102460007B68536200BF2037BD4680BD003001400D
:102470000010024000080140781C00201C000240AF
:10248000BC1C00203000024080B58CB000AF7860EA
:102490000023FB620023BB6200227968192000F050
:1024A000BEF9192000F0D7F91E4B9B691D4A43F471
:1024B000006393611B4B9B6903F40063FB60FB6843
:1024C00007F1100207F114031146184602F052FEFC
:1024D00002F03CFEF862FB6A134AA2FB03239B0C4A
:1024E000013BBB62114B124A1A60104B40F2E732BB
:1024F000DA600E4ABB6A53600C4B00221A610B4B28
:1025000000229A60094803F05BFB0346002B04D1CC
:10251000064803F0ADFB034600E0012318463037C0
:10252000BD4680BD0010024083DE1B43001D00201D
:10253000002C014080B500AF02F04CFEFEE780B4F5
:1025400000AFFEE780B400AFFEE780B400AFFEE767
:1025500080B400AFFEE780B400AF00BFBD4680BCD2
:102560007047000080B500AF024800F0F9F900BFE5
:1025700080BD00BF781C002080B500AF024800F08D
:10258000EFF900BF80BD00BFBC1C002080B500AFCC
:10259000024800F0BEFF00BF80BD00BFF420002055
:1025A00080B500AF024803F0B5FB00BF80BD00BF9F
:1025B000001D002080B400AF00BFBD4680BC704746
:1025C000002103E00B4B5B58435004310A480B4B8E
:1025D00042189A42F6D30A4A02E0002342F8043B2A
:1025E000084B9A42F9D3FFF7E5FF0AF07FF9FFF7AE
:1025F000FDFB7047DCCA00080000002080010020BD
:1026000080010020E0230020FEE7000080B500AF3D
:10261000084B1B68074A43F010031360032000F0C7
:10262000F3F80020FFF730FFFFF73AFE00231846CB
:1026300080BD00BF0020024080B400AF054B1B7876
:102640001A46054B1B681344034A136000BFBD467E
:1026500080BC70470C000020481D002080B400AFF3
:10266000024B1B681846BD4680BC7047481D0020C1
:1026700080B584B000AF7860FFF7F0FFB8607B688A
:10268000FB60FB68B3F1FF3F05D0094B1B781A468E
:10269000FB681344FB6000BFFFF7E0FF0246BB6826
:1026A000D31AFA689A42F7D800BF1037BD4680BDEA
:1026B0000C00002080B485B000AF78607B6803F028
:1026C0000703FB600C4BDB68BB60BA684FF6FF0387
:1026D0001340BB60FB681A02BB68134343F0BF633F
:1026E00043F40033BB60044ABB68D36000BF1437B7
:1026F000BD4680BC704700BF00ED00E080B400AF75
:10270000044BDB681B0A03F007031846BD4680BC78
:10271000704700BF00ED00E080B483B000AF034617
:10272000FB7197F90730002B0BDBFB7903F01F02DD
:10273000064997F907305B09012000FA02F241F8D7
:10274000232000BF0C37BD4680BC704700E100E08D
:1027500080B483B000AF03463960FB7197F907304E
:10276000002B0ADB3B68DAB20C4997F907301201FB
:10277000D2B20B4483F800230AE03B68DAB208497E
:10278000FB7903F00F03043B1201D2B20B441A761B
:1027900000BF0C37BD4680BC704700BF00E100E0C1
:1027A00000ED00E080B489B000AFF860B9607A60F5
:1027B000FB6803F00703FB61FB69C3F10703042B0C
:1027C00028BF0423BB61FB690433062B02D9FB69D4
:1027D000033B00E000237B614FF0FF32BB6902FA4C
:1027E00003F3DA43BB681A407B699A404FF0FF312C
:1027F0007B6901FA03F3D9437B680B401343184606
:102800002437BD4680BC704780B582B000AF786089
:102810007868FFF74FFF00BF0837BD4680BD80B521
:1028200086B000AF0346B9607A60FB7300237B611A
:10283000FFF764FF78617A68B9687869FFF7B2FFDB
:10284000024697F90F3011461846FFF781FF00BF87
:102850001837BD4680BD80B582B000AF0346FB711E
:1028600097F907301846FFF757FF00BF0837BD46F6
:1028700080BD80B582B000AF78607B68002B01D14D
:1028800001230EE07B685B79DBB2002B05D17B680E
:1028900000221A717868FFF73BFD7B6801225A71AC
:1028A000002318460837BD4680BD000080B485B0BF
:1028B00000AF78600023FB607B68002B01D101230F
:1028C00043E07B681B681A46224B1344224AA2FB52
:1028D00003231B099A007B681A647B681F4ADA632A
:1028E0007B68022283F821207B681B681B68FB60E1
:1028F000FB6823F47F5323F03003FB607B685A6846
:102900007B689B681A437B68DB681A437B681B699A
:102910001A437B685B691A437B689B691A437B682F
:10292000DB691343FA681343FB607B681B68FA6832
:102930001A607B6800229A637B68012283F8212059
:102940007B68002283F82020002318461437BD46F8
:1029500080BC7047F8FFFDBFCDCCCCCC000002405E
:1029600080B584B000AF78607B68DB6B1B68FB6070
:102970007B681B681B68BB607B681B6C04229A40E9
:10298000FB681340002B4FD0BB6803F00403002BFF
:102990004AD07B681B681B6803F02003002B07D11B
:1029A0007B681B681A687B681B6822F004021A6047
:1029B0007B681B68664A934229D07B681B68654A1E
:1029C000934222D07B681B68634A93421AD07B688B
:1029D0001B68624A934212D07B681B68604A93422C
:1029E0000AD07B681B685F4A934202D14FF4800390
:1029F0000EE04FF080630BE04FF4802308E04FF4CB
:102A0000804305E04FF4806302E0402300E00423AC
:102A1000554A53607B68DB6A002B00F094807B682A
:102A2000DB6A786898478EE07B681B6C02229A40CC
:102A3000FB681340002B56D0BB6803F00203002B49
:102A400051D07B681B681B6803F02003002B0BD15F
:102A50007B681B681A687B681B6822F00A021A6090
:102A60007B68012283F821207B681B68384A9342E7
:102A700029D07B681B68374A934222D07B681B6849
:102A8000354A93421AD07B681B68344A934212D06D
:102A90007B681B68324A93420AD07B681B68314AC4
:102AA000934202D14FF400130EE04FF000730BE09D
:102AB0004FF4003308E04FF4005305E04FF4007387
:102AC00002E0202300E00223274A53607B680022B3
:102AD00083F820207B689B6A002B34D07B689B6A3C
:102AE000786898472FE07B681B6C08229A40FB6847
:102AF0001340002B28D0BB6803F00803002B23D021
:102B00007B681B681A687B681B6822F00E021A60DB
:102B10007B681A6C7B68DB6B012101FA02F25A6058
:102B20007B6801229A637B68012283F821207B68FD
:102B3000002283F820207B681B6B002B04D07B686D
:102B40001B6B7868984700BF00BF1037BD4680BD3B
:102B5000080002401C0002403000024044000240D5
:102B6000580002406C00024000000240F0B587B0FF
:102B700000AFF860B960C7E900230123FB750023AB
:102B8000BB7500237B752F4B1B7E012B01D10223CC
:102B900054E02C4B01221A764CF2503000F0A8F889
:102BA0000346FB75FB7D002B44D1FB68012B02D152
:102BB00001237B7507E0FB68022B02D102237B75A2
:102BC00001E004237B750023BB752DE0BB7D5A001B
:102BD000BB6802EB030CBB7D1901D7E90023C1F1EF
:102BE0002006A1F1200022FA01F403FA06F634438C
:102BF00023FA00F0044323FA01F5A3B21946604614
:102C000000F05AF84CF2503000F072F80346FB75B1
:102C10000D4B1B690C4A23F001031361FB7D002B54
:102C200007D1BB7D0133BB75BA7D7B7D9A42CDD385
:102C300000E000BF034B00221A76FB7D18461C37CC
:102C4000BD46F0BD501D00200020024080B483B07E
:102C500000AF0023FB710D4B1B6903F08003002BB9
:102C60000DD00A4B0A4A5A60084B0A4A5A60074B71
:102C70001B6903F08003002B01D00123FB71FB795A
:102C800018460C37BD4680BC704700BF002002408C
:102C900023016745AB89EFCD80B400AF054B1B69BD
:102CA000044A43F08003136100231846BD4680BCEC
:102CB000704700BF0020024080B483B000AF78604E
:102CC0000B467B80084B0022DA61084B1B69074AE0
:102CD00043F0010313617B687A881A8000BF0C37C8
:102CE000BD4680BC704700BF501D00200020024040
:102CF00080B584B000AF7860FFF7B0FCF86010E0FA
:102D00007B68B3F1FF3F0CD07B68002B07D0FFF747
:102D1000A5FC0246FB68D31A7A689A4201D20323C3
:102D200025E0154BDB6803F00103002BE8D1124BC3
:102D3000DB6803F02003002B02D00F4B2022DA6067
:102D40000D4BDB6803F01003002B0BD10A4BDB6942
:102D500003F00103002B05D1074BDB6803F00403EC
:102D6000002B03D000F00AF8012300E000231846EE
:102D70001037BD4680BD00BF0020024080B483B044
:102D800000AF00237B60234BDB6803F01003002BB4
:102D900009D0214BDB6943F002031F4AD3617B68F2
:102DA00043F010037B601B4BDB6803F00403002B34
:102DB00009D0194BDB6943F00103174AD3617B68E3
:102DC00043F004037B60134BDB6903F00103002B2A
:102DD0000BD0114BDB6943F004030F4AD3610D4B59
:102DE000DB690C4A23F00103D3617B6840F20112D6
:102DF000934206D1074BDB69064A23F00103D361F6
:102E000002E0044A7B68D36000BF0C37BD4680BC3B
:102E1000704700BF00200240501D002080B584B0E4
:102E200000AF786039600123FB730023BB602F4B38
:102E30001B7E012B01D1022353E02C4B01221A7679
:102E40007B681B68022B16D14CF25030FFF750FF05
:102E50000346002B41D1012000F04CF84CF25030D9
:102E6000FFF746FF0346FB73214B1B69204A23F003
:102E70000403136131E04CF25030FFF739FF034691
:102E8000002B2AD13B684FF0FF321A607B689B68A9
:102E9000BB6019E0B86800F049F84CF25030FFF719
:102EA00027FF0346FB73124B1B69114A23F00203F1
:102EB0001361FB7B002B03D03B68BA681A600CE0FF
:102EC000BB6803F58063BB607B68DB689A027B6844
:102ED0009B681344BA689A42DCD3044B00221A76EA
:102EE000FB7B18461037BD4680BD00BF501D00203B
:102EF0000020024080B483B000AF7860094B00220C
:102F0000DA61094B1B69084A43F004031361064B5D
:102F10001B69054A43F04003136100BF0C37BD46EF
:102F200080BC7047501D00200020024080B483B058
:102F300000AF78600B4B0022DA610B4B1B690A4A29
:102F400043F002031361084A7B685361064B1B6917
:102F5000054A43F04003136100BF0C37BD4680BCF7
:102F6000704700BF501D00200020024080B48BB08D
:102F700000AF7860396000237B6200233B6227E169
:102F800001227B6A02FA03F3FB613B681B68FA6962
:102F90001340BB61BA69FB699A4240F016813B68F5
:102FA0005B68122B34D0122B0DD8022B2BD0022BA6
:102FB00004D8002B31D0012B1CD048E0032B43D088
:102FC000112B1BD043E0894A934226D0874A934273
:102FD00006D8874A934220D0864A93421DD036E0D5
:102FE000854A934219D0854A934216D0844A934227
:102FF00013D02CE03B68DB683B6228E03B68DB6871
:1030000004333B6223E03B68DB6808333B621EE02D
:103010003B68DB680C333B6219E03B689B68002B24
:1030200002D104233B6212E03B689B68012B05D16F
:1030300008233B627B68FA691A6108E008233B6257
:103040007B68FA695A6102E000233B6200BFBB69FA
:10305000FF2B01D87B6801E07B6804337B61BB698F
:10306000FF2B02D87B6A9B0002E07B6A083B9B0037
:103070003B617B691A680F213B6901FA03F3DB436B
:103080001A40396A3B6901FA03F31A437B691A60F3
:103090003B685B6803F08053002B00F09680594B2F
:1030A0009B69584A43F001039361564B9B6903F0B7
:1030B0000103BB60BB68544A7B6A9B08023352F829
:1030C0002330FB607B6A03F003039B000F2202FAAC
:1030D00003F3DB43FA681340FB607B684B4A93427F
:1030E00013D07B684A4A93420DD07B68494A934289
:1030F00007D07B68484A934201D1032306E00423AA
:1031000004E0022302E0012300E000237A6A02F0D7
:10311000030292009340FA681343FB603A497B6ACA
:103120009B080233FA6841F823203B685B6803F48C
:103130008033002B06D0394B1A683849BB691343DA
:103140000B6006E0354B1A68BB69DB43334913401B
:103150000B603B685B6803F40033002B06D02F4BF9
:103160005A682E49BB6913434B6006E02B4B5A68E3
:10317000BB69DB43294913404B603B685B6803F440
:103180008013002B06D0254B9A682449BB69134352
:103190008B6006E0214B9A68BB69DB431F491340F3
:1031A0008B603B685B6803F40013002B06D01B4B5D
:1031B000DA681A49BB691343CB6006E0174BDA683B
:1031C000BB69DB4315491340CB607B6A01337B62EB
:1031D0003B681A687B6A22FA03F3002B7FF4D0AEB7
:1031E00000BF2C37BD4680BC704700BF00002110D7
:1031F0000000111000001210000031100000321009
:1032000000002210001002400000014000080140B0
:10321000000C014000100140001401400004014076
:1032200080B485B000AF78600B467B807B689A687D
:103230007B881340002B02D00123FB7301E00023A5
:10324000FB73FB7B18461437BD4680BC704780B4C7
:1032500083B000AF78600B467B8013467B707B7831
:10326000002B03D07A887B681A6103E07B881A04FC
:103270007B681A6100BF0C37BD4680BC704780B4C4
:1032800085B000AF78600B467B807B68DB68FB60B5
:103290007A88FB6813401A04FB68D9437B880B408B
:1032A0001A437B681A6100BF1437BD4680BC704763
:1032B000F0B58BB006AF78607B68002B01D101239D
:1032C000FDE07B6893F8A932DBB2002B06D17B6866
:1032D000002283F8A822786809F07AF87B68032234
:1032E00083F8A9227B681B68184602F0D9FE7B6828
:1032F0001B683B607E686D4606F110040FCC0FC55D
:1033000023682B60331D0ECB386802F0A3FE034602
:10331000002B05D07B68022283F8A9220123CEE08E
:103320007B681B680021184602F0D4FE0023FB7363
:103330004CE0FB7B79685A1C13469B001344DB006E
:103340000B44013301221A70FB7B79685A1C134627
:103350009B001344DB000B44FA7B1A70FA7BFB7B67
:1033600098B2796813469B001344DB000B44363354
:1033700002461A80FB7B79685A1C13469B00134453
:10338000DB000B44033300221A70FA7B7968134682
:103390009B001344DB000B44383300221A60FA7B95
:1033A000796813469B001344DB000B443C33002236
:1033B0001A60FA7B796813469B001344DB000B44C8
:1033C000403300221A60FB7B0133FB73FA7B7B687E
:1033D0005B689A42ADD30023FB7344E0FA7B7968C3
:1033E00013469B001344DB000B4403F269130022D5
:1033F0001A70FA7B796813469B001344DB000B4478
:1034000003F5B473FA7B1A70FA7B796813469B0054
:103410001344DB000B4403F26B1300221A70FA7B97
:10342000796813469B001344DB000B4403F5BC731F
:1034300000221A60FA7B796813469B001344DB0074
:103440000B4403F5BE7300221A60FA7B79681346B9
:103450009B001344DB000B4403F5C07300221A6089
:10346000FB7B0133FB73FA7B7B685B689A42B5D3C5
:103470007B681B683B607E686D4606F110040FCCCC
:103480000FC523682B60331D0ECB386802F02EFE6B
:103490000346002B05D07B68022283F8A922012372
:1034A0000DE07B68002283F824207B68012283F8EA
:1034B000A9227B681B68184604F0C8FD0023184643
:1034C0001437BD46F0BD80B582B000AF78607B6830
:1034D00093F8A832012B01D1022316E07B68012268
:1034E00083F8A8227B681B68184602F0C3FD0121FF
:1034F000786809F0C4F97B681B68184604F09CFDE5
:103500007B68002283F8A822002318460837BD46AE
:1035100080BD80B588B000AF78607B681B681846B6
:1035200004F09EFD034603F40043B3F5004F02D1BF
:10353000786800F04AFB7B681B68184604F090FD31
:10354000034603F48063B3F5806F12D17B681B6878
:10355000B3F844309AB27B681B6822F4806292B25E
:10356000A3F84420786808F0AEFF0021786800F0E6
:1035700025F97B681B68184604F072FD034603F4C6
:103580008043B3F5804F0BD17B681B68B3F84430A0
:103590009AB27B681B6822F4804292B2A3F844205E
:1035A0007B681B68184604F05BFD034603F4005378
:1035B000B3F5005F0BD17B681B68B3F844309AB257
:1035C0007B681B6822F4005292B2A3F844207B6807
:1035D0001B68184604F044FD034603F48053B3F51A
:1035E000805F26D17B681B68B3F840309AB27B6855
:1035F0001B6822F0040292B2A3F840207B681B688B
:10360000B3F840309AB27B681B6822F0080292B28D
:10361000A3F84020786808F08FFF7B681B68B3F838
:1036200044309AB27B681B6822F4805292B2A3F8AD
:1036300044207B681B68184604F012FD034603F41F
:103640000063B3F5006F40F084800023FB7711E046
:103650007B681B681A46FB7F9B001A44FB7F12881D
:1036600092B25B0007F120010B4423F8142CFB7F7E
:103670000133FB77FB7F072BEAD97B681B68B3F824
:1036800040309AB27B681B6842F0010292B2A3F804
:1036900040207B681B68B3F840309AB27B681B6897
:1036A00022F0010292B2A3F8402000BF7B681B68A1
:1036B000B3F844309BB203F48063002BF6D07B68F0
:1036C0001B68B3F844309AB27B681B6822F48062AE
:1036D00092B2A3F844200023FB7710E0FB7F7A68C6
:1036E00012681146FA7F92000A445B0007F120013C
:1036F0000B4433F8143C1380FB7F0133FB77FB7FD3
:10370000072BEBD97B681B68B3F840309AB27B6813
:103710001B6842F0080292B2A3F840207B681B6845
:10372000B3F844309AB27B681B6822F4006292B20C
:10373000A3F844207B681B68B3F840309AB27B68DA
:103740001B6842F0040292B2A3F84020786808F0A7
:10375000D9FE7B681B68184604F082FC034603F41C
:103760000073B3F5007F0ED17B681B68B3F844305B
:103770009AB27B681B6822F4007292B2A3F84420CC
:10378000786808F092FE7B681B68184604F068FCB5
:10379000034603F48073B3F5807F0BD17B681B680D
:1037A000B3F844309AB27B681B6822F4807292B2FC
:1037B000A3F8442000BF2037BD4680BD80B582B04D
:1037C00000AF78600B46FB707B6893F8A832012B42
:1037D00001D1022313E07B68012283F8A8227B68D1
:1037E000FA7883F824207B681B68FA78114618461B
:1037F00004F00FFC7B68002283F8A82200231846FF
:103800000837BD4680BD80B584B000AF78600846FB
:1038100011461A460346FB700B463B801346BB70AD
:103820000023FB7297F90330002B0EDAFB7803F0CC
:1038300007035A1C13469B001344DB007A681344A9
:10384000FB60FB6801225A700EE0FB7803F0070270
:1038500013469B001344DB0003F5B4737A681344EA
:10386000FB60FB6800225A70FB7803F00703DAB2B2
:10387000FB681A703A88FB681A61FB68BA78DA70DC
:10388000FB685B78002B04D0FB681B789AB2FB685E
:10389000DA81BB78022B02D1FB6800221A717B68A7
:1038A00093F8A832012B01D102230EE07B6801229C
:1038B00083F8A8227B681B68F968184602F036FC7A
:1038C0007B68002283F8A822FB7A18461037BD4691
:1038D00080BD80B584B000AF78600B46FB7097F96F
:1038E0000330002B0EDAFB7803F007035A1C134653
:1038F0009B001344DB007A681344FB60FB680122E1
:103900005A700EE0FB7803F0070213469B00134445
:10391000DB0003F5B4737A681344FB60FB68002294
:103920005A70FB7803F00703DAB2FB681A707B6801
:1039300093F8A832012B01D102230EE07B6801220B
:1039400083F8A8227B681B68F968184602F058FFC4
:103950007B68002283F8A822002318461037BD4652
:1039600080BD80B586B000AFF8607A603B600B46E2
:10397000FB72FB7A03F0070213469B001344DB0043
:1039800003F5B473FA6813447B617B697A685A6102
:103990007B693A689A617B690022DA617B6900225F
:1039A0005A70FB7A03F00703DAB27B691A70FB7A6C
:1039B00003F00703002B06D1FB681B6879691846E2
:1039C00003F00AF905E0FB681B687969184603F003
:1039D00003F9002318461837BD4680BD80B586B070
:1039E00000AFF8607A603B600B46FB72FB7A03F035
:1039F00007035A1C13469B001344DB00FA68134468
:103A00007B617B697A685A617B693A689A617B69F4
:103A1000012283F824207B693A681A627B690022BC
:103A2000DA617B6901225A70FB7A03F00703DAB28C
:103A30007B691A70FB7A03F00703002B06D1FB6841
:103A40001B687969184603F0C7F805E0FB681B6836
:103A50007969184603F0C0F8002318461837BD46A8
:103A600080BD80B584B000AF78600B46FB70FB78FA
:103A700003F007027B685B689A4201D901234CE09E
:103A800097F90330002B0EDAFB7803F007035A1C7A
:103A900013469B001344DB007A681344FB60FB6809
:103AA00001225A700CE0FA7813469B001344DB00A5
:103AB00003F5B4737A681344FB60FB6800225A7004
:103AC000FB6801229A70FB7803F00703DAB2FB6807
:103AD0001A707B6893F8A832012B01D102231CE0F5
:103AE0007B68012283F8A8227B681B68F968184666
:103AF00004F092F9FB7803F00703002B08D17B68F0
:103B00001A687B6803F52C731946104604F0B7FA5F
:103B10007B68002283F8A822002318461037BD4690
:103B200080BD80B584B000AF78600B46FB70FB7839
:103B300003F00F027B685B689A4201D9012340E0E1
:103B400097F90330002B0EDAFB7803F007035A1CB9
:103B500013469B001344DB007A681344FB60FB6848
:103B600001225A700EE0FB7803F0070213469B0017
:103B70001344DB0003F5B4737A681344FB60FB68FD
:103B800000225A70FB6800229A70FB7803F007034A
:103B9000DAB2FB681A707B6893F8A832012B01D166
:103BA00002230EE07B68012283F8A8227B681B6851
:103BB000F968184604F080F97B68002283F8A8228F
:103BC000002318461037BD4680BD80B58EB000AFCB
:103BD0007860DFE27B681B68B3F84430FB85FB8DBF
:103BE000DBB203F00F0387F82D3097F82D30002B50
:103BF00040F05881FB8D03F01003002B52D17B68FD
:103C00001B681B889BB223F4E14323F07003FB8104
:103C10007B681A68FB896FEA43436FEA53439BB2A0
:103C200013807B6828337B627B681B68B3F8503055
:103C30009BB21A467B6A1B78DB00134402335B009D
:103C40007A681268134403F580631B88C3F3090282
:103C50007B6ADA617B6A5A697B6ADB691A447B6A30
:103C60005A610021786808F006FC7B6893F82430DC
:103C7000DBB2002B00F08E827B6A9B69002B40F048
:103C800089827B6893F82430DBB263F07F03DAB279
:103C90007B681B6892B2A3F84C207B68002283F8F3
:103CA000242077E27B6803F5B4737B627B681B6832
:103CB0001B887B857B8D03F40063002B34D07B68ED
:103CC0001B68B3F850309BB21A467B6A1B78DB0046
:103CD000134406335B007A681268134403F580636B
:103CE0001B88C3F309027B6ADA617B6818687B680A
:103CF00003F52C717B6ADA887B6ADB699BB204F07E
:103D00000DFA7B681B681B889AB240F68F731340CC
:103D10003B827B681B683A8A42F0800292B21A802A
:103D2000786808F07BFB35E2B7F92A30002B80F287
:103D300031827B681B681B889AB240F68F731340F0
:103D4000BB837B681B68BA8B42F0800292B21A80F8
:103D50007B681B68B3F850309BB21A467B6A1B78AD
:103D6000DB00134406335B007A681268134403F5E2
:103D700080631B88C3F309027B6ADA617B6ADB69B3
:103D8000002B19D07B6A5B69002B15D07B68186803
:103D90007B6A59697B6ADA887B6ADB699BB204F0CB
:103DA000BDF97B6A5A697B6ADB691A447B6A5A618E
:103DB0000021786808F044FB7B681B68BB617B6866
:103DC0001B68B3F850309BB21A46BB691344BB6101
:103DD000BB6903F20C437B617B6A1B69002B12D128
:103DE0007B691B889BB223F4F8439AB27B691A80E3
:103DF0007B691B889BB26FEA43436FEA53439AB2D5
:103E00007B691A802FE07B6A1B693E2B13D87B6A83
:103E10001B695B083B637B6A1B6903F00103002B92
:103E200002D03B6B01333B633B6B9BB29B029AB26C
:103E30007B691A8017E07B6A1B695B093B637B6ABD
:103E40001B6903F01F03002B02D13B6B013B3B635B
:103E50003B6B9BB29B029BB26FEA43436FEA5343B7
:103E60009AB27B691A807B681B681B889BB223F41B
:103E7000804323F070037B827B8A83F480537B82B0
:103E80007B8A83F400537B827B681A687B8A43F0C9
:103E90007F4343F47F0343F4004343F080039BB22A
:103EA000138077E17B681B681A4697F82D309B00DA
:103EB00013441B887B85B7F92A30002B80F2EA80F7
:103EC0007B681B681A4697F82D309B0013441B88AB
:103ED0009AB240F68F7313403B857B681B681A4685
:103EE00097F82D309B0013443A8D42F0800292B235
:103EF0001A8097F82D2013469B001344DB0003F52E
:103F0000B4737A6813447B627B6A1B7B002B22D1DB
:103F10007B681B68B3F850309BB21A467B6A1B78EB
:103F2000DB00134406335B007A681268134403F520
:103F300080631B88C3F30903FB86FB8E002B00F014
:103F400087807B6818687B6A59697B6ADA88FB8E90
:103F500004F0E4F87CE07B6ADB78022B08D17B8DEF
:103F60001A46796A786800F023F90346FB866FE009
:103F70007B681B681A467B6A1B789B0013441B886E
:103F80009BB223F4E04323F070037B847B681B68BF
:103F90001A467B6A1B789B001A447B8C43F07F4354
:103FA00043F47F0343F4004343F0C0039BB2138008
:103FB0007B681B681A467B6A1B789B0013441B882E
:103FC0009BB203F48043002B21D07B681B68B3F8BD
:103FD00050309BB21A467B6A1B78DB0013440233D5
:103FE0005B007A681268134403F580631B88C3F38F
:103FF0000903FB86FB8E002B2AD07B6818687B6A3E
:1040000059697B6A1A89FB8E04F088F820E07B6886
:104010001B68B3F850309BB21A467B6A1B78DB00F2
:10402000134406335B007A681268134403F5806317
:104030001B88C3F30903FB86FB8E002B08D07B682B
:1040400018687B6A59697B6A5A89FB8E04F066F8A6
:104050007B6ADA69FB8E1A447B6ADA617B6A5A6989
:10406000FB8E1A447B6A5A617B6A9B69002B04D0E1
:10407000FA8E7B6A1B699A4206D27B6A1B781946C4
:10408000786808F0DDF905E07B681B68796A1846F6
:1040900002F0A2FD7B8D03F08003002B7AD097F80D
:1040A0002D305A1C13469B001344DB007A681344DE
:1040B0007B627B681B681A4697F82D309B0013447F
:1040C0001B889BB223F4E14323F070033B847B689D
:1040D0001B681A4697F82D309B001A443B8C6FEAF8
:1040E00043436FEA53439BB213807B6ADB78022B16
:1040F00008D17B6ADB78022B46D17B8D03F4807379
:10410000002B41D17B681B68B3F850309BB21A4634
:104110007B6A1B78DB00134402335B007A68126809
:10412000134403F580631B88C3F30903FB837B6A95
:104130009A69FB8B9A4206D97B6A9A69FB8BD21AE1
:104140007B6A9A6102E07B6A00229A617B6A9B69C2
:10415000002B06D17B6A1B781946786808F08BF92A
:1041600018E07B6A5A69FB8B1A447B6A5A617B6A46
:10417000DA69FB8B1A447B6ADA617B681B68796AAF
:10418000184602F029FD05E07B8D1A46796A7868A9
:1041900000F01BF97B681B68B3F844309BB21BB27C
:1041A000002BFFF617AD002318463837BD4680BDFB
:1041B00080B588B000AFF860B9601346FB80FB881B
:1041C00003F48043002B7ED0FB681B68B3F85030AB
:1041D0009BB21A46BB681B78DB00134402335B00BA
:1041E000FA681268134403F580631B88C3F309035C
:1041F0007B83BB689A697B8B9A4206D3BB689A69BA
:104200007B8BD21ABB689A6102E0BB6800229A617C
:10421000BB689B69002B23D1FB681B681A46BB68EF
:104220001B789B0013441B889BB223F4804323F02C
:1042300070033B833B8B83F400533B83FB681B6819
:104240001A46BB681B789B001A443B8B43F07F43A4
:1042500043F47F0343F4004343F080039BB2138095
:10426000FB8803F04003002B1FD0FB681B681A4635
:10427000BB681B789B0013441B889BB223F4E0436C
:1042800023F07003FB82FB681B681A46BB681B782F
:104290009B001A44FB8A43F07F4343F47F0343F4BB
:1042A000004343F0C0039BB213807B8B002B00F0D4
:1042B0008780FB681868BB685969BB681A897B8B63
:1042C00003F02CFF7CE0FB681B68B3F850309BB216
:1042D0001A46BB681B78DB00134406335B00FA68A0
:1042E0001268134403F580631B88C3F309037B83BF
:1042F000BB689A697B8B9A4206D3BB689A697B8BB1
:10430000D21ABB689A6102E0BB6800229A61BB685E
:104310009B69002B23D1FB681B681A46BB681B787E
:104320009B0013441B889BB223F4804323F070034B
:10433000FB83FB8B83F40053FB83FB681B681A46EB
:10434000BB681B789B001A44FB8B43F07F4343F40C
:104350007F0343F4004343F080039BB21380FB8848
:1043600003F04003002B1FD1FB681B681A46BB6893
:104370001B789B0013441B889BB223F4E04323F07B
:104380007003BB83FB681B681A46BB681B789B00E5
:104390001A44BB8B43F07F4343F47F0343F4004351
:1043A00043F0C0039BB213807B8B002B08D0FB68CB
:1043B0001868BB685969BB685A897B8B03F0AEFEED
:1043C0007B8B18462037BD4680BD80B592B000AFCC
:1043D000F860B9601346FB80FB8803F04003002BB4
:1043E00000F03281FB681B68B3F850309BB21A466C
:1043F000BB681B78DB00134402335B00FA68126869
:10440000134403F580631B88C3F30903FB85BB6872
:104410009A69FB8D9A4206D9BB689A69FB8DD21ABC
:10442000BB689A6102E0BB6800229A61BB689B6925
:10443000002B2CD1BB681B781946F86808F01BF8D4
:10444000FB8803F48043002B00F02F82FB681B687D
:104450001A46BB681B789B0013441B889BB223F44D
:10446000E04323F070037B82FB681B681A46BB683D
:104470001B789B001A447B8A43F07F4343F47F03FD
:1044800043F4404343F080039BB213800DE2FB886A
:1044900003F48043002B1FD0FB681B681A46BB68DF
:1044A0001B789B0013441B889BB223F4E04323F04A
:1044B0007003BB84FB681B681A46BB681B789B00B3
:1044C0001A44BB8C43F07F4343F47F0343F44043DF
:1044D00043F080039BB21380BB6893F82430012B18
:1044E00040F0E381BB685A69FB8D1A44BB685A618E
:1044F000BB68DA69FB8D1A44BB68DA61BB681A6A6B
:10450000BB681B699A4209D3BB681B69BB63BB6864
:104510001A6ABB6BD21ABB681A6214E0BB681B6ACA
:10452000002B06D1FB8DBB63BB68002283F82420DF
:1045300009E0BB68002283F82420BB681B6ABB63C8
:10454000BB6800221A62BB685B78002B55D1FB6800
:104550001B68BB61FB681B68B3F850309BB21A46FE
:10456000BB691344BB61BB681B781A01BB69134468
:1045700003F204437B61BB6B002B12D17B691B8868
:104580009BB223F4F8439AB27B691A807B691B883B
:104590009BB26FEA43436FEA53439AB27B691A8036
:1045A00047E0BB6B3E2B11D8BB6B5B08BB62BB6BA0
:1045B00003F00103002B02D0BB6A0133BB62BB6A6C
:1045C0009BB29B029AB27B691A8032E0BB6B5B099B
:1045D000BB62BB6B03F01F03002B02D1BB6A013B24
:1045E000BB62BB6A9BB29B029BB26FEA43436FEA1A
:1045F00053439AB27B691A801BE0BB685B78012B3E
:1046000017D1FB681B683B62FB681B68B3F850302E
:104610009BB21A463B6A13443B62BB681B781A0183
:104620003B6A134403F20443FB61BB6B9AB2FB6920
:104630001A80FB681868BB685969BB681A89BB6B2C
:104640009BB203F027FD30E1FB681B68B3F85030E4
:104650009BB21A46BB681B78DB00134406335B0031
:10466000FA681268134403F580631B88C3F30903D7
:10467000FB85BB689A69FB8D9A4206D3BB689A6931
:10468000FB8DD21ABB689A6102E0BB6800229A6176
:10469000BB689B69002B2CD1BB681B781946F86856
:1046A00007F0E9FEFB8803F48043002B40F0FD8017
:1046B000FB681B681A46BB681B789B0013441B8869
:1046C0009BB223F4E04323F07003FB84FB681B6878
:1046D0001A46BB681B789B001A44FB8C43F07F434F
:1046E00043F47F0343F4404343F080039BB21380C1
:1046F000DBE0FB8803F48043002B1FD1FB681B68C1
:104700001A46BB681B789B0013441B889BB223F49A
:10471000E04323F07003BB85FB681B681A46BB6847
:104720001B789B001A44BB8D43F07F4343F47F0307
:1047300043F4404343F080039BB21380BB6893F87B
:104740002430012B40F0B180BB685A69FB8D1A44BC
:10475000BB685A61BB68DA69FB8D1A44BB68DA61D1
:10476000BB681A6ABB681B699A4209D3BB681B699C
:10477000BB63BB681A6ABB6BD21ABB681A6214E0CF
:10478000BB681B6A002B06D1FB8DBB63BB68002294
:1047900083F8242009E0BB681B6ABB63BB68002266
:1047A0001A62BB68002283F82420FB681B687B63C5
:1047B000BB685B78002B55D1FB681B687B64FB688A
:1047C0001B68B3F850309BB21A467B6C13447B6471
:1047D000BB681B781A017B6C134403F20C433B64E7
:1047E000BB6B002B12D13B6C1B889BB223F4F843AC
:1047F0009AB23B6C1A803B6C1B889BB26FEA4343B6
:104800006FEA53439AB23B6C1A8044E0BB6B3E2B79
:1048100011D8BB6B5B08FB63BB6B03F00103002B80
:1048200002D0FB6B0133FB63FB6B9BB29B029AB222
:104830003B6C1A802FE0BB6B5B09FB63BB6B03F027
:104840001F03002B02D1FB6B013BFB63FB6B9BB295
:104850009B029BB26FEA43436FEA53439AB23B6CAD
:104860001A8018E0BB685B78012B14D1FB681B68C9
:10487000B3F850309BB21A467B6B13447B63BB6822
:104880001B781A017B6B134403F20C433B63BB6B35
:104890009AB23B6B1A80FB681868BB685969BB68A1
:1048A0005A89BB6B9BB203F0F5FBFB681B681A4689
:1048B000BB681B789B0013441B889BB223F4E04326
:1048C00023F040033B823B8A83F010033B823B8A08
:1048D00083F020033B82FB681B681A46BB681B7889
:1048E0009B001A443B8A43F07F4343F47F0343F425
:1048F000004343F080039BB21380002318464837DF
:10490000BD4680BD80B487B000AFF8607B600B46C9
:104910007B8113463B817B8903F080039BB2002B94
:104920000BD07B8903F007035A1C13469B001344EA
:10493000DB00FA6813447B6109E07A8913469B0027
:104940001344DB0003F5B473FA6813447B613B89BD
:10495000002B07D17B6900221A737B689AB27B69AE
:10496000DA800BE07B6901221A737B689AB27B695B
:104970001A817B681B0C9AB27B695A810023184606
:104980001C37BD4680BC704780B586B000AF7860EC
:104990007B68002B01D101236CE27B681B6803F06C
:1049A0000103002B00F08780924B5B6803F00C033F
:1049B000042B0CD08F4B5B6803F00C03082B12D137
:1049C0008C4B5B6803F48033B3F5803F0BD1894B8C
:1049D0001B6803F40033002B6CD07B685B68002BF2
:1049E00068D1012346E27B685B68B3F5803F06D15E
:1049F000804B1B687F4A43F4803313602EE07B6852
:104A00005B68002B0CD17B4B1B687A4A23F4803304
:104A10001360784B1B68774A23F4802313601DE0F2
:104A20007B685B68B3F5A02F0CD1724B1B68714A91
:104A300043F4802313606F4B1B686E4A43F480334A
:104A400013600BE06B4B1B686A4A23F480331360DE
:104A5000684B1B68674A23F4802313607B685B689C
:104A6000002B13D0FDF7FAFD386108E0FDF7F6FDE5
:104A700002463B69D31A642B01D90323FAE15D4B4B
:104A80001B6803F40033002BF0D014E0FDF7E6FDC3
:104A9000386108E0FDF7E2FD02463B69D31A642B5A
:104AA00001D90323E6E1534B1B6803F40033002BC9
:104AB000F0D100E000BF7B681B6803F00203002B0D
:104AC00063D04C4B5B6803F00C03002B0BD0494BBD
:104AD0005B6803F00C03082B1CD1464B5B6803F4A6
:104AE0008033002B16D1434B1B6803F00203002BCD
:104AF00005D07B681B69012B01D00123BAE13D4B36
:104B00001B6823F0F8027B685B69DB0039491343BB
:104B10000B603AE07B681B69002B20D0364B0122EA
:104B20001A60FDF79BFD386108E0FDF797FD02462E
:104B30003B69D31A022B01D903239BE12D4B1B6840
:104B400003F00203002BF0D02A4B1B6823F0F8027D
:104B50007B685B69DB00274913430B6015E0264B3C
:104B600000221A60FDF77AFD386108E0FDF776FD56
:104B700002463B69D31A022B01D903237AE11D4B6C
:104B80001B6803F00203002BF0D17B681B6803F065
:104B90000803002B3AD07B689B69002B19D0174B78
:104BA00001221A60FDF75AFD386108E0FDF756FD55
:104BB00002463B69D31A022B01D903235AE10D4B5C
:104BC0005B6A03F00203002BF0D0012000F016FB1B
:104BD0001CE00A4B00221A60FDF740FD38610FE02F
:104BE000FDF73CFD02463B69D31A022B08D903238B
:104BF00040E100BF001002400000424280044242F7
:104C00009E4B5B6A03F00203002BE9D17B681B68B3
:104C100003F00403002B00F0A6800023FB75974BE4
:104C2000DB6903F08053002B0DD1944BDB69934A71
:104C300043F08053D361914BDB6903F08053BB6039
:104C4000BB680123FB758E4B1B6803F48073002B3C
:104C500018D18B4B1B688A4A43F480731360FDF7AD
:104C6000FDFC386108E0FDF7F9FC02463B69D31A08
:104C7000642B01D90323FDE0814B1B6803F480738F
:104C8000002BF0D07B68DB68012B06D17B4B1B6AC5
:104C90007A4A43F0010313622DE07B68DB68002B46
:104CA0000CD1764B1B6A754A23F001031362734BD8
:104CB0001B6A724A23F0040313621CE07B68DB6802
:104CC000052B0CD16D4B1B6A6C4A43F00403136235
:104CD0006A4B1B6A694A43F0010313620BE0674B9E
:104CE0001B6A664A23F001031362644B1B6A634A22
:104CF00023F0040313627B68DB68002B15D0FDF7FB
:104D0000ADFC38610AE0FDF7A9FC02463B69D31A05
:104D100041F28832934201D90323ABE0574B1B6A1F
:104D200003F00203002BEED014E0FDF797FC38618E
:104D30000AE0FDF793FC02463B69D31A41F2883240
:104D4000934201D9032395E04C4B1B6A03F0020305
:104D5000002BEED1FB7D012B05D1484BDB69474A87
:104D600023F08053D3617B68DB69002B00F08180E6
:104D7000424B5B6803F00C03082B61D07B68DB6956
:104D8000022B46D13F4B00221A60FDF767FC3861C9
:104D900008E0FDF763FC02463B69D31A022B01D9F8
:104DA000032367E0354B1B6803F00073002BF0D141
:104DB0007B681B6AB3F5803F08D1304B5B6823F4F6
:104DC00000327B689B682D4913434B602B4B5B681B
:104DD00023F474127B68196A7B685B6A0B4327496A
:104DE00013434B60274B01221A60FDF737FC3861F3
:104DF00008E0FDF733FC02463B69D31A022B01D9C8
:104E0000032337E01D4B1B6803F00073002BF0D029
:104E10002FE01C4B00221A60FDF720FC386108E0EF
:104E2000FDF71CFC02463B69D31A022B01D9032370
:104E300020E0124B1B6803F00073002BF0D118E048
:104E40007B68DB69012B01D1012313E00B4B5B680D
:104E5000FB60FB6803F480327B681B6A9A4206D1D0
:104E6000FB6803F470127B685B6A9A4201D00123ED
:104E700000E0002318461837BD4680BD00100240F0
:104E8000007000406000424280B584B000AF78609E
:104E900039607B68002B01D10123D0E06A4B1B688D
:104EA00003F007033A689A4210D9674B1B6823F056
:104EB000070265493B6813430B60634B1B6803F0B3
:104EC00007033A689A4201D00123B8E07B681B6867
:104ED00003F00203002B20D07B681B6803F004035F
:104EE000002B05D0594B5B68584A43F4E06353608C
:104EF0007B681B6803F00803002B05D0534B5B68ED
:104F0000524A43F460535360504B5B6823F0F00205
:104F10007B689B684D4913434B607B681B6803F0BB
:104F20000103002B40D07B685B68012B07D1474B06
:104F30001B6803F40033002B15D101237FE07B684D
:104F40005B68022B07D1414B1B6803F00073002BF9
:104F500009D1012373E03D4B1B6803F00203002BD2
:104F600001D101236BE0394B5B6823F003027B68BE
:104F70005B68364913434B60FDF770FBF8600AE04D
:104F8000FDF76CFB0246FB68D31A41F2883293426C
:104F900001D9032353E02D4B5B6803F00C027B68BF
:104FA0005B689B009A42EBD1274B1B6803F0070319
:104FB0003A689A4210D2244B1B6823F00702224918
:104FC0003B6813430B60204B1B6803F007033A68F0
:104FD0009A4201D0012332E07B681B6803F004038E
:104FE000002B08D0194B5B6823F4E0627B68DB6818
:104FF000164913434B607B681B6803F00803002BC2
:1050000009D0124B5B6823F460527B681B69DB009C
:105010000E4913434B6000F02DF801460B4B5B68C3
:105020001B0903F00F030A4AD35C21FA03F3094A70
:105030001360094B1B681846FDF726FA0023184633
:105040001037BD4680BD00BF002002400010024066
:10505000BCCA0008040000200800002080B400AF93
:10506000034B01221A6000BFBD4680BC704700BFE1
:105070004C00424290B48AB000AF2A4B3C1D0FCB8B
:1050800084E80F00284B1B883B800023FB61002332
:10509000BB6100237B6200237B6100233B62234BC7
:1050A0005B68FB61FB6903F00C03042B02D0082B47
:1050B00003D02DE01E4B3B622DE0FB699B0C03F0FF
:1050C0000F0307F12802134413F8243C7B61FB69AA
:1050D00003F48033002B13D0144B5B685B0C03F09C
:1050E000010307F12802134413F8283CBB617B69D4
:1050F0000F4A02FB03F2BB69B2FBF3F37B6204E0ED
:105100007B690C4A02FB03F37B627B6A3B6202E031
:10511000074B3B6200BF3B6A18462837BD4690BC30
:10512000704700BF88C9000898C9000800100240F5
:1051300000127A0000093D0080B400AF024B1B68EA
:105140001846BD4680BC70470400002080B500AF03
:10515000FFF7F2FF0146054B5B68DB0A03F007032C
:10516000034AD35C21FA03F3184680BD00100240C5
:10517000CCCA000880B483B000AF786039607B6827
:105180000F221A60114B5B6803F003027B685A60C0
:105190000E4B5B6803F0F0027B689A600B4B5B6818
:1051A00003F4E0627B68DA60084B5B68DB0803F4B9
:1051B000E0627B681A61064B1B6803F007023B68DC
:1051C0001A6000BF0C37BD4680BC7047001002401B
:1051D0000020024080B500AF064B9B6803F08003BF
:1051E000802B04D100F028F8034B80221A7000BFF6
:1051F00080BD00BF001002400A10024080B485B09C
:1052000000AF78600A4B1B680A4AA2FB03235B0AC3
:105210007A6802FB03F3FB6000BFFB685A1EFA606A
:10522000002BF9D100BF1437BD4680BC704700BFCA
:1052300004000020D34D621080B400AF00BFBD4613
:1052400080BC704780B586B000AF786000233B61BA
:105250000023FB607B681B6803F00103002B7DD0FB
:105260000023FB754F4BDB6903F08053002B0DD1FE
:105270004C4BDB694B4A43F08053D361494BDB69AC
:1052800003F08053BB60BB680123FB75464B1B6872
:1052900003F48073002B18D1434B1B68424A43F43C
:1052A00080731360FDF7DAF9386108E0FDF7D6F98D
:1052B00002463B69D31A642B01D903236DE03A4BB4
:1052C0001B6803F48073002BF0D0364B1B6A03F489
:1052D0004073FB60FB68002B2ED07B685B6803F497
:1052E0004073FA689A4227D02E4B1B6A23F440730E
:1052F000FB602E4B01221A602C4B00221A60294AB7
:10530000FB681362FB6803F00103002B14D0FDF768
:10531000A5F938610AE0FDF7A1F902463B69D31A05
:1053200041F28832934201D9032336E01D4B1B6AB8
:1053300003F00203002BEED01A4B1B6A23F44072D9
:105340007B685B68174913430B62FB7D012B05D11A
:10535000144BDB69134A23F08053D3617B681B68CD
:1053600003F00203002B08D00E4B5B6823F440428D
:105370007B689B680B4913434B607B681B6803F099
:105380001003002B08D0074B5B6823F480027B6876
:10539000DB68044913434B60002318461837BD46A9
:1053A00080BD00BF00100240007000404004424237
:1053B00080B582B000AF78607B68002B01D10123FB
:1053C00076E07B685B6A002B08D17B685B68B3F58D
:1053D000827F09D07B680022DA6105E07B680022C9
:1053E0001A617B6800225A617B6800229A627B689E
:1053F00093F85130DBB2002B06D17B68002283F892
:1054000050207868FCF7A2FF7B68022283F85120C5
:105410007B681B681A687B681B6822F040021A6070
:105420007B685B6803F482727B689B6803F40443C7
:105430001A437B68DB6803F400631A437B681B69CB
:1054400003F002031A437B685B6903F001031A430C
:105450007B689B6903F400731A437B68DB6903F084
:1054600038031A437B681B6A03F0800342EA030196
:105470007B689B6A03F400527B681B680A431A60CE
:105480007B689B691A0C7B681B6802F004025A60F7
:105490007B681B68DA697B681B6822F40062DA614A
:1054A0007B6800225A657B68012283F85120002323
:1054B00018460837BD4680BD80B588B000AFF8609B
:1054C000B9603B601346FB800023FB77FB6893F8D1
:1054D0005030012B01D1022326E1FB68012283F821
:1054E0005020FDF7BBF8B861FB88FB82FB6893F89E
:1054F0005130DBB2012B02D00223FB770BE1BB68FA
:10550000002B02D0FB88002B02D10123FB7702E1A4
:10551000FB68032283F85120FB6800225A65FB6870
:10552000BA681A63FB68FA889A86FB68FA88DA8692
:10553000FB6800229A63FB6800229A87FB680022BE
:10554000DA87FB6800225A64FB6800221A64FB6851
:105550009B68B3F5004F0FD1FB681B681A68FB68A6
:105560001B6822F040021A60FB681B681A68FB681F
:105570001B6842F480421A60FB681B681B6803F0DA
:105580004003402B07D0FB681B681A68FB681B6848
:1055900042F040021A60FB68DB68B3F5006F4BD144
:1055A000FB685B68002B02D0FB8A012B3ED1FB68B5
:1055B0001B6B1A88FB681B68DA60FB681B6B9A1C04
:1055C000FB681A63FB68DB8E9BB2013B9AB2FB68F7
:1055D000DA862BE0FB681B689B6803F00203022B52
:1055E00012D1FB681B6B1A88FB681B68DA60FB68CA
:1055F0001B6B9A1CFB681A63FB68DB8E9BB2013B3A
:105600009AB2FB68DA8611E0FDF728F80246BB691A
:10561000D31A3A689A4203D83B68B3F1FF3F02D1EC
:105620003B68002B02D10323FB7774E0FB68DB8E21
:105630009BB2002BCED14CE0FB685B68002B02D004
:10564000FB8A012B40D1FB681A6BFB681B680C338B
:1056500012781A70FB681B6B5A1CFB681A63FB6894
:10566000DB8E9BB2013B9AB2FB68DA862CE0FB68CA
:105670001B689B6803F00203022B13D1FB681A6BB3
:10568000FB681B680C3312781A70FB681B6B5A1C82
:10569000FB681A63FB68DB8E9BB2013B9AB2FB6826
:1056A000DA8611E0FCF7DAFF0246BB69D31A3A68E2
:1056B0009A4203D83B68B3F1FF3F02D13B68002B0D
:1056C00002D10323FB7726E0FB68DB8E9BB2002B25
:1056D000CDD1BA693968F86800F054FA0346002B56
:1056E00002D0FB6820225A65FB689B68002B0AD118
:1056F00000233B61FB681B68DB683B61FB681B6840
:105700009B683B613B69FB685B6D002B02D001230A
:10571000FB7700E000BFFB68012283F85120FB68A3
:10572000002283F85020FB7F18462037BD4680BDFD
:1057300080B58CB000AFF860B9607A607B800123DF
:10574000FB62002387F82B30FB6893F85030012B65
:1057500001D102238AE1FB68012283F85020FCF783
:105760007DFF7862FB6893F8513087F82330FB683F
:105770005B68FB617B887B8397F82330012B0FD01C
:10578000FB69B3F5827F07D1FB689B68002B03D1CF
:1057900097F82330042B03D0022387F82B305BE1EA
:1057A000BB68002B05D07B68002B02D07B88002BC8
:1057B00003D1012387F82B304EE1FB6893F8513079
:1057C000DBB2042B03D0FB68052283F85120FB6871
:1057D00000225A65FB687A689A63FB687A88DA87E0
:1057E000FB687A889A87FB68BA681A63FB687A88CC
:1057F000DA86FB687A889A86FB6800221A64FB685E
:1058000000225A64FB681B681B6803F04003402BAE
:1058100007D0FB681B681A68FB681B6842F04002EF
:105820001A60FB68DB68B3F5006F78D1FB685B68D2
:10583000002B02D07B8B012B66D1FB681B6B1A8877
:10584000FB681B68DA60FB681B6B9A1CFB681A63B9
:10585000FB68DB8E9BB2013B9AB2FB68DA8653E0B1
:10586000FB681B689B6803F00203022B1BD1FB68DB
:10587000DB8E9BB2002B16D0FB6A012B13D1FB6889
:105880001B6B1A88FB681B68DA60FB681B6B9A1C31
:10589000FB681A63FB68DB8E9BB2013B9AB2FB6824
:1058A000DA860023FB62FB681B689B6803F0010338
:1058B000012B19D1FB68DB8F9BB2002B14D0FB6846
:1058C0001B68DA68FB689B6B92B21A80FB689B6B63
:1058D0009A1CFB689A63FB68DB8F9BB2013B9AB210
:1058E000FB68DA870123FB62FCF7B8FE02467B6A9D
:1058F000D31ABA6B9A4207D8BB6BB3F1FF3F03D000
:10590000032387F82B30A7E0FB68DB8E9BB2002BCC
:10591000A6D1FB68DB8F9BB2002BA1D17CE0FB689A
:105920005B68002B02D07B8B012B6BD1FB681A6B61
:10593000FB681B680C3312781A70FB681B6B5A1CCF
:10594000FB681A63FB68DB8E9BB2013B9AB2FB6873
:10595000DA8657E0FB681B689B6803F00203022BA2
:105960001CD1FB68DB8E9BB2002B17D0FB6A012B8E
:1059700014D1FB681A6BFB681B680C3312781A7021
:10598000FB681B6B5A1CFB681A63FB68DB8E9BB2BF
:10599000013B9AB2FB68DA860023FB62FB681B6856
:1059A0009B6803F00103012B19D1FB68DB8F9BB2CD
:1059B000002B14D0FB681B68DA68FB689B6BD2B2C3
:1059C0001A70FB689B6B5A1CFB689A63FB68DB8F41
:1059D0009BB2013B9AB2FB68DA870123FB62FCF7BA
:1059E0003DFE02467B6AD31ABA6B9A4203D8BB6B60
:1059F000B3F1FF3F02D1BB6B002B03D1032387F828
:105A00002B3029E0FB68DB8E9BB2002BA2D1FB6818
:105A1000DB8F9BB2002B9DD17A6AB96BF86800F0DE
:105A2000B1F80346002B06D0012387F82B30FB6822
:105A300020225A6510E0FB689B68002B0BD10023E5
:105A40007B61FB681B68DB687B61FB681B689B688C
:105A50007B617B6900E000BFFB68012283F8512075
:105A6000FB68002283F8502097F82B301846303717
:105A7000BD4680BD80B588B000AFF860B9603B60BE
:105A80001346FB71FCF7EAFD0246BB6A9B1A3A68B3
:105A90001344FB61FCF7E2FDB861394B1B685B0105
:105AA0001B0DFA6902FB03F37B6154E03B68B3F121
:105AB000FF3F50D0FCF7D2FD0246BB69D31AFA690A
:105AC0009A4202D9FB69002B3DD1FB681B685A68DA
:105AD000FB681B6822F0E0025A60FB685B68B3F564
